:060000000A128A11BE2F56
:100F7C0083010A128A11C22F83160313860183126E
:100F8C00031306140A128A11D8270A128A11831223
:100F9C00031306100A128A11D8270A128A110A1290
:100FAC008A1100280030F0000030F1007108803AFE
:100FBC00FF00A7307F02031DE52F10307002031CC9
:100FCC00E82FE92FEB2FFF2FFF2F0130F00703182D
:100FDC00F10A0030F1077108803AFF00A7307F0258
:100FEC00031DFA2F10307002031CFD2FFE2FEB2F68
:040FFC00FF2F0800BB
:00000001FF
