:060000000A128A118F2F85
:100F1E0083010A128A11D92FF000831203138C1148
:100F2E00700893009A2F8C1D9D2F9E2F9A2F9F2F06
:100F3E001308A12F080083160313871107168712B3
:100F4E00071406108312031306144030831603137E
:100F5E00940021308312031394008C110800831225
:100F6E000313061006300A128A1193270A128A11E9
:100F7E00831203130614061002300A128A119327E5
:100F8E000A128A1100300A128A1193270A128A1144
:100F9E0073080A128A1193270A128A1183120313F5
:100FAE00061408000A128A11A2270A128A11DF2FCC
:100FBE00831203130718E42FE52FDF2F0030F10003
:100FCE000030F2004130F4007408F3000A128A1166
:100FDE00B6270A128A11F32F831203130718F82F5C
:100FEE00F92FF32FDF2FDF2FDF2FDF2F0A128A11BA
:020FFE000028C9
:00000001FF
