:060000000A128A11AC2F68
:100F580083010A128A11B02F831603138601073002
:100F68008700871107168712831203130614861445
:100F7800061540308316031394002130831203139F
:100F880094008C11C72F071CCA2FCB2FD82F0610FF
:100F9800861406158C1141309300D22F8C1DD52F45
:100FA800D62FD22F8C110614871CDB2FDC2FE92FAC
:100FB8008610061406158C1142309300E32F8C1D01
:100FC800E62FE72FE32F8C118614071DEC2FED2F4A
:100FD800C72F0611061486148C1143309300F42F82
:100FE8008C1DF72FF82FF42F8C110615C72FC72F3C
:080FF800C72F0A128A1100281C
:00000001FF
