:060000000A128A11122809
:10000800FE000308F0000408F1000A08F200831259
:1000180003137F08F3000A128A117A280A128A1138
:10002800B92883120313860183160313860100304F
:100038000A128A11AB200A128A11F6007608F90012
:1000480006307902031C29282A2849288312031319
:1000580006140630F8000E30F700B030F600F60B44
:100068003328F70B3328F80B3328831203130610B1
:100078000630F8000E30F700B030F600F60B4228D4
:10008800F70B4228F80B422849280B30F60076086F
:10009800F40000300A128A1193200A128A11722879
:1000A8008312031386140230F8000330F700BA30C5
:1000B800F600F60B5D28F70B5D28F80B5D28831218
:1000C800031386100230F8000330F700BA30F60048
:1000D800F60B6C28F70B6C28F80B6C287A08031DB4
:1000E8007628542877280A128A1112280D1E7D288E
:1000F8007E2886280D12831603170C11FA010314A3
:10010800FA0D8628730883120313FF0072088A0009
:100118007108840070088300FE0E7E0E0900F50049
:100128007508831203178D0074088C008316031753
:100138008C130C158B170B17831603130D165530DC
:10014800831603178D00AA308D008C140800F40064
:100158007408831203178D00831603178C130C146D
:10016800831203170C08B8280800FA0183010A1241
:040178008A111528AB
:00000001FF
