:060000000A128A11A92F6B
:100F520083010A128A11CD2F0030F0000030F10017
:100F6200C3307102503003197002031CB92FBA2F1B
:100F7200BC2FCC2FCC2F0130F0070318F10A003020
:100F8200F107C3307102503003197002031CCA2FDB
:100F9200CB2FBC2FCC2F080083160313860183129C
:100FA20003138601D42F0830F3000030F400F41F3D
:100FB200DB2FDC2FDE2FD42FD42F0130F200730A67
:100FC200E42F0310F20DFF3E031DE22F720883127D
:100FD200031386000A128A11AD270A128A11FF3002
:100FE200F3070318F40AFF30F407F41FF92FFA2F5E
:0E0FF200DE2FD42FD42FD42F0A128A110028FC
:00000001FF
