:060000000A128A113F2ED6
:100C48003F3406345B344F3466346D347D340734B6
:100C58007F346F347E088A007F0882002E260A12AD
:100C68008A118000840A04087D0603190034FF0AEB
:100C78000319FE0A322E83132A30FD000630FE00C7
:100C88002430FF00203084000A128A1132260A120A
:100C98008A1183010A128A115B2F83120313081425
:100CA80088107008203E84008313000886000430F2
:100CB800F5003D30F400F40B5F2EF50B5F2E642E2B
:100CC80083120313081088147208203E84008313CB
:100CD800000886000430F5003D30F400F40B722E55
:100CE800F50B722E772E0800031000300318013020
:100CF800F600F31F802E812E8A2EF209F309F20ADC
:100D08000319F30AF6010314F60D8A2EF11F8D2E2E
:100D18008E2E942EF009F109F00A0319F10A942E87
:100D2800710870040319992E9A2ED02EF501031418
:100D3800F50DAA2E01300310F00DF10DFF3E031D35
:100D48009F2E0130F4007408F507AA2EF11FAD2E6E
:100D5800AE2E9E2EB02EB02E71087302031DB62E35
:100D680070087202031CB92EBA2EC12E7008F20246
:100D78007108031CF303F302C12E01300310F10CB8
:100D8800F00CFF3E031DC22E0130F502031DCD2ECF
:100D9800CE2EB02ED02ED02E7608031DD42EDA2ECD
:100DA800F209F309F20A0319F30ADA2E7308F101BA
:100DB800F1077208F001F007E12E08000310003077
:100DC80003180130F600F11FEA2EEB2EF42EF0097D
:100DD800F109F00A0319F10AF6010314F60DF42ECD
:100DE800F31FF72EF82E012FF209F309F20A03195F
:100DF800F30A0130F4007408F6060030F7000030FA
:100E0800F8007108700403190A2F0B2F492FF501F8
:100E18000314F50D1B2F01300310F00DF10DFF3EEB
:100E2800031D102F0130F4007408F5071B2FF11F64
:100E38001E2F1F2F0F2F212F212F01300310F70DE9
:100E4800F80DFF3E031D222F71087302031D2E2F7C
:100E580070087202031C312F322F3A2F7008F202E9
:100E68007108031CF303F30277143A2F01300310BF
:100E7800F10CF00CFF3E031D3B2F0130F502031D62
:100E8800462F472F212F492F492F7608031D4D2F15
:100E9800532FF709F809F70A0319F80A532F7808A6
:100EA800F101F1077708F001F0075A2F08008316BF
:100EB8000313860188018312031386018801642FB6
:100EC800003083120313B0000030B1003108803ABB
:100ED800FF0080307F02031D732F64303002031C33
:100EE800762F772F792F642F642F0A30F000003087
:100EF800F100831203133108F301F3073008F201FC
:100F0800F2070A128A11E2260A128A11710883125C
:100F18000313AB01AB077008AA01AA070A30F00057
:100F28000030F1003108F301F3073008F201F2074D
:100F38000A128A1178260A128A1171088312031379
:100F4800AD01AD077008AC01AC070030AE00003051
:100F5800AF002F08803AFF0080307F02031DB62FB4
:100F680032302E02031CB92FBA2FBC2FE52FE52FE4
:100F7800831203132B08F101F1072A08F001F00787
:100F88002D08F301F3072C08F201F2070A128A115F
:100F980051260A128A11013083120313AE0703186F
:100FA800AF0A0030AF072F08803AFF0080307F0279
:100FB800031DE02F32302E02031CE32FE42FBC2F39
:100FC800E52F013083120313B0070318B10A00306C
:100FD800B1073108803AFF0080307F02031DF62FE9
:100FE80064303002031CF92FFA2F792F642F642FF5
:080FF800642F0A128A1100287F
:00000001FF
