:060000000A128A11552FBF
:100E74003F3406345B344F3466346D347D34073488
:100E84007F346F347E088A007F08820044270A1268
:100E94008A118000840A04087D0603190034FF0ABD
:100EA4000319FE0A482F83132A30FD000730FE0081
:100EB4003A30FF00203084000A128A1148270A12AF
:100EC4008A1183010A128A118F2F0030F00000303A
:100ED400F1007108803AFF00F5307F02031D742F82
:100EE40030307002031C772F782F7A2F8E2F8E2F9D
:100EF4000130F0070318F10A0030F1077108803A55
:100F0400FF00F5307F02031D892F30307002031C6F
:100F14008C2F8D2F7A2F8E2F0800831603138601B2
:100F2400932F0A30F2000030F3007308803AFF0078
:100F340080307F02031DA02F013072020318A32FFB
:100F4400A42FA62FC72FC72F7208203E8400831317
:100F540000088312031386000A128A1167270A12F3
:100F64008A11FF30F2070318F30AFF30F3077308FE
:100F7400803AFF0080307F02031DC22F01307202CD
:100F84000318C52FC62FA62FC72F0030F40000303A
:100F9400F5007508803AFF0080307F02031DD42FCE
:100FA4000A307402031CD72FD82FDA2F932F932FD4
:100FB4007408203E84008313000883120313860000
:100FC4000A128A1167270A128A110130F4070318DA
:100FD400F50A0030F5077508803AFF0080307F027B
:100FE400031DF62F0A307402031CF92FFA2FDA2F8F
:0C0FF400932F932F932F0A128A110028CC
:00000001FF
